{
  "_format": "hh-sol-artifact-1",
  "contractName": "Lumina",
  "sourceName": "contracts/Lumina.sol",
  "abi": [
    {
      "inputs": [
        {
          "internalType": "address",
          "name": "_lumiAddress",
          "type": "address"
        },
        {
          "internalType": "address",
          "name": "_dataFeedAddress",
          "type": "address"
        }
      ],
      "stateMutability": "nonpayable",
      "type": "constructor"
    },
    {
      "anonymous": false,
      "inputs": [
        {
          "indexed": true,
          "internalType": "address",
          "name": "_from",
          "type": "address"
        },
        {
          "indexed": false,
          "internalType": "uint256",
          "name": "_amountLumi",
          "type": "uint256"
        }
      ],
      "name": "ClaimRewards",
      "type": "event"
    },
    {
      "anonymous": false,
      "inputs": [
        {
          "indexed": true,
          "internalType": "address",
          "name": "previousOwner",
          "type": "address"
        },
        {
          "indexed": true,
          "internalType": "address",
          "name": "newOwner",
          "type": "address"
        }
      ],
      "name": "OwnershipTransferred",
      "type": "event"
    },
    {
      "anonymous": false,
      "inputs": [
        {
          "indexed": true,
          "internalType": "address",
          "name": "_from",
          "type": "address"
        },
        {
          "indexed": false,
          "internalType": "uint256",
          "name": "_amountLumi",
          "type": "uint256"
        },
        {
          "indexed": false,
          "internalType": "uint256",
          "name": "_amountEth",
          "type": "uint256"
        }
      ],
      "name": "Stake",
      "type": "event"
    },
    {
      "anonymous": false,
      "inputs": [
        {
          "indexed": true,
          "internalType": "address",
          "name": "_from",
          "type": "address"
        },
        {
          "indexed": false,
          "internalType": "uint256",
          "name": "_amountETH",
          "type": "uint256"
        },
        {
          "indexed": false,
          "internalType": "uint256",
          "name": "_amountLUMI",
          "type": "uint256"
        }
      ],
      "name": "Swap",
      "type": "event"
    },
    {
      "anonymous": false,
      "inputs": [
        {
          "indexed": true,
          "internalType": "address",
          "name": "_from",
          "type": "address"
        },
        {
          "indexed": false,
          "internalType": "uint256",
          "name": "_amountLumi",
          "type": "uint256"
        },
        {
          "indexed": false,
          "internalType": "uint256",
          "name": "_amountEth",
          "type": "uint256"
        }
      ],
      "name": "UnStake",
      "type": "event"
    },
    {
      "stateMutability": "payable",
      "type": "fallback"
    },
    {
      "inputs": [
        {
          "internalType": "address",
          "name": "_address",
          "type": "address"
        },
        {
          "internalType": "uint256",
          "name": "_researchId",
          "type": "uint256"
        }
      ],
      "name": "assignContributor",
      "outputs": [],
      "stateMutability": "nonpayable",
      "type": "function"
    },
    {
      "inputs": [],
      "name": "claimRewards",
      "outputs": [],
      "stateMutability": "nonpayable",
      "type": "function"
    },
    {
      "inputs": [
        {
          "internalType": "string",
          "name": "_domain",
          "type": "string"
        },
        {
          "internalType": "string",
          "name": "_references",
          "type": "string"
        }
      ],
      "name": "contributorApplication",
      "outputs": [],
      "stateMutability": "nonpayable",
      "type": "function"
    },
    {
      "inputs": [
        {
          "internalType": "uint256",
          "name": "_amountETH",
          "type": "uint256"
        }
      ],
      "name": "convertETHToLumi",
      "outputs": [
        {
          "internalType": "uint256",
          "name": "",
          "type": "uint256"
        }
      ],
      "stateMutability": "view",
      "type": "function"
    },
    {
      "inputs": [],
      "name": "getContractBalance",
      "outputs": [
        {
          "internalType": "uint256",
          "name": "",
          "type": "uint256"
        }
      ],
      "stateMutability": "view",
      "type": "function"
    },
    {
      "inputs": [],
      "name": "getContractBalances",
      "outputs": [
        {
          "internalType": "uint256[2]",
          "name": "",
          "type": "uint256[2]"
        }
      ],
      "stateMutability": "view",
      "type": "function"
    },
    {
      "inputs": [],
      "name": "getLatestPrice",
      "outputs": [
        {
          "internalType": "int256",
          "name": "",
          "type": "int256"
        }
      ],
      "stateMutability": "view",
      "type": "function"
    },
    {
      "inputs": [
        {
          "internalType": "address",
          "name": "_address",
          "type": "address"
        }
      ],
      "name": "getStakingData",
      "outputs": [
        {
          "components": [
            {
              "internalType": "uint256",
              "name": "amountEth",
              "type": "uint256"
            },
            {
              "internalType": "uint256",
              "name": "amountLumi",
              "type": "uint256"
            },
            {
              "internalType": "uint256",
              "name": "timestamp",
              "type": "uint256"
            },
            {
              "internalType": "int256",
              "name": "ethPrice",
              "type": "int256"
            },
            {
              "internalType": "uint256",
              "name": "reward",
              "type": "uint256"
            },
            {
              "internalType": "bool",
              "name": "isStaking",
              "type": "bool"
            }
          ],
          "internalType": "struct Lumina.StakedTokens",
          "name": "",
          "type": "tuple"
        }
      ],
      "stateMutability": "view",
      "type": "function"
    },
    {
      "inputs": [],
      "name": "owner",
      "outputs": [
        {
          "internalType": "address",
          "name": "",
          "type": "address"
        }
      ],
      "stateMutability": "view",
      "type": "function"
    },
    {
      "inputs": [
        {
          "internalType": "uint256",
          "name": "_researchId",
          "type": "uint256"
        }
      ],
      "name": "readResearch",
      "outputs": [],
      "stateMutability": "nonpayable",
      "type": "function"
    },
    {
      "inputs": [],
      "name": "renounceOwnership",
      "outputs": [],
      "stateMutability": "nonpayable",
      "type": "function"
    },
    {
      "inputs": [
        {
          "internalType": "uint256",
          "name": "_amount",
          "type": "uint256"
        }
      ],
      "name": "stake",
      "outputs": [],
      "stateMutability": "payable",
      "type": "function"
    },
    {
      "inputs": [],
      "name": "swap",
      "outputs": [],
      "stateMutability": "payable",
      "type": "function"
    },
    {
      "inputs": [],
      "name": "transferEthToOwner",
      "outputs": [],
      "stateMutability": "nonpayable",
      "type": "function"
    },
    {
      "inputs": [
        {
          "internalType": "address",
          "name": "newOwner",
          "type": "address"
        }
      ],
      "name": "transferOwnership",
      "outputs": [],
      "stateMutability": "nonpayable",
      "type": "function"
    },
    {
      "inputs": [],
      "name": "unstake",
      "outputs": [],
      "stateMutability": "nonpayable",
      "type": "function"
    },
    {
      "stateMutability": "payable",
      "type": "receive"
    }
  ],
  "bytecode": "0x60806040523480156200001157600080fd5b50604051620044b6380380620044b6833981810160405281019062000037919062000292565b620000576200004b6200015960201b60201c565b6200016160201b60201c565b6200007367aca765f7db4e1a3860c01b6200022560201b60201c565b6200008f67a01a36988835e7e360c01b6200022560201b60201c565b81600160006101000a81548173ffffffffffffffffffffffffffffffffffffffff021916908373ffffffffffffffffffffffffffffffffffffffff160217905550620000ec674cee23b8d409da1060c01b6200022560201b60201c565b60016002819055506200011067f8030fd63426627560c01b6200022560201b60201c565b80600360006101000a81548173ffffffffffffffffffffffffffffffffffffffff021916908373ffffffffffffffffffffffffffffffffffffffff1602179055505050620002d9565b600033905090565b60008060009054906101000a900473ffffffffffffffffffffffffffffffffffffffff169050816000806101000a81548173ffffffffffffffffffffffffffffffffffffffff021916908373ffffffffffffffffffffffffffffffffffffffff1602179055508173ffffffffffffffffffffffffffffffffffffffff168173ffffffffffffffffffffffffffffffffffffffff167f8be0079c531659141344cd1fd0a4f28419497f9722a3daafe3b4186f6b6457e060405160405180910390a35050565b50565b600080fd5b600073ffffffffffffffffffffffffffffffffffffffff82169050919050565b60006200025a826200022d565b9050919050565b6200026c816200024d565b81146200027857600080fd5b50565b6000815190506200028c8162000261565b92915050565b60008060408385031215620002ac57620002ab62000228565b5b6000620002bc858286016200027b565b9250506020620002cf858286016200027b565b9150509250929050565b6141cd80620002e96000396000f3fe6080604052600436106100f75760003560e01c806390f86e341161008a578063c205854611610059578063c2058546146102ff578063d4cbd6a714610328578063f2fde38b1461033f578063ffd2a7d3146103685761011a565b806390f86e3414610254578063a694fc3a1461027d578063aa49f50114610299578063c1639adb146102d65761011a565b8063715018a6116100c6578063715018a6146101dd5780638119c065146101f45780638da5cb5b146101fe5780638e15f473146102295761011a565b80632def662014610147578063372500ab1461015e57806367a7b5f6146101755780636f9fb98a146101b25761011a565b3661011a576101106722216a20db9a3dd860c01b610393565b610118610396565b005b61012e67e50d53a2130446a960c01b610393565b61014267ff9cf6adc50b85cb60c01b610393565b600080fd5b34801561015357600080fd5b5061015c61064c565b005b34801561016a57600080fd5b50610173610cb4565b005b34801561018157600080fd5b5061019c60048036038101906101979190612dfa565b61118d565b6040516101a99190612eef565b60405180910390f35b3480156101be57600080fd5b506101c761126f565b6040516101d49190612f19565b60405180910390f35b3480156101e957600080fd5b506101f261134e565b005b6101fc610396565b005b34801561020a57600080fd5b50610213611362565b6040516102209190612f43565b60405180910390f35b34801561023557600080fd5b5061023e61138b565b60405161024b9190612f6d565b60405180910390f35b34801561026057600080fd5b5061027b60048036038101906102769190612fb4565b611491565b005b61029760048036038101906102929190612ff4565b61156a565b005b3480156102a557600080fd5b506102c060048036038101906102bb9190612ff4565b611bbe565b6040516102cd9190612f19565b60405180910390f35b3480156102e257600080fd5b506102fd60048036038101906102f89190612ff4565b611d12565b005b34801561030b57600080fd5b5061032660048036038101906103219190613086565b61231e565b005b34801561033457600080fd5b5061033d612404565b005b34801561034b57600080fd5b5061036660048036038101906103619190612dfa565b612553565b005b34801561037457600080fd5b5061037d6125d6565b60405161038a91906131a3565b60405180910390f35b50565b6103aa67fae65f98801e2f6a60c01b610393565b6103be67e5e6ce9affefa3b960c01b610393565b6103d267a16a680b9e2edc8b60c01b610393565b6103e667780b40544b496cc760c01b610393565b60003411610429576040517f08c379a00000000000000000000000000000000000000000000000000000000081526004016104209061321b565b60405180910390fd5b61043d67605008ba2a3d836760c01b610393565b610451677833b0e4ce5a642660c01b610393565b610465677310c1fefcbfde4d60c01b610393565b610479676463ae97d304d88a60c01b610393565b34610482612763565b73ffffffffffffffffffffffffffffffffffffffff163110156104da576040517f08c379a00000000000000000000000000000000000000000000000000000000081526004016104d190613287565b60405180910390fd5b6104ee67af0eda947b1b2db260c01b610393565b61050267de0991065558c7ae60c01b610393565b61051667e5a13295eef0db0c60c01b610393565b600061052c676947de697b88f7ae60c01b610393565b6105406789950acd1c4967f860c01b610393565b61055467ddf5892b5e99ec1960c01b610393565b8015610595576040517f08c379a000000000000000000000000000000000000000000000000000000000815260040161058c906132f3565b60405180910390fd5b6105a967191f7d499fb2f00260c01b610393565b6105bd672a51646d3ee7424760c01b610393565b600190506105d56718d4038a2939411160c01b610393565b6105e967f810e8ba4588382060c01b610393565b60006105f434611bbe565b905061060a675e4a81df264c459660c01b610393565b61061e67efab0a8e0805e11e60c01b610393565b610630610629612763565b823461276b565b6106446707d9ef93048443ff60c01b610393565b600091505050565b61066067be8e2ffb07567a3860c01b610393565b6106746782fbcf8f88b75a1760c01b610393565b6106886709686b6458d7574360c01b610393565b61069c67dbabe038ab53d89860c01b610393565b6106b0673b4881991900b95a60c01b610393565b600460006106bc612763565b73ffffffffffffffffffffffffffffffffffffffff1673ffffffffffffffffffffffffffffffffffffffff16815260200190815260200160002060050160009054906101000a900460ff16610746576040517f08c379a000000000000000000000000000000000000000000000000000000000815260040161073d9061335f565b60405180910390fd5b61075a676e234b8afe4034e760c01b610393565b61076e670794e3b7df1583ac60c01b610393565b6107826741df63fe600119d260c01b610393565b610796679f950d656a5c443c60c01b610393565b6107aa6739c95bd6bff130a460c01b610393565b6107be67a8c4a28ff43195b260c01b610393565b6000600460006107cc612763565b73ffffffffffffffffffffffffffffffffffffffff1673ffffffffffffffffffffffffffffffffffffffff16815260200190815260200160002060010154905061082067df7e2ec659f3acca60c01b610393565b61083467f1c4f0f1cca5fde760c01b610393565b600060046000610842612763565b73ffffffffffffffffffffffffffffffffffffffff1673ffffffffffffffffffffffffffffffffffffffff16815260200190815260200160002060000154905061089667c1b3be1bf1036b6260c01b610393565b6000600460006108a4612763565b73ffffffffffffffffffffffffffffffffffffffff1673ffffffffffffffffffffffffffffffffffffffff16815260200190815260200160002060050160006101000a81548160ff02191690831515021790555061090c671e168dd8b2e5a1ac60c01b610393565b61092067bd7e0a11688bdf5760c01b610393565b6109286128c5565b61093c67728f2a3c2fee663a60c01b610393565b60006004600061094a612763565b73ffffffffffffffffffffffffffffffffffffffff1673ffffffffffffffffffffffffffffffffffffffff1681526020019081526020016000206001018190555061099f67a504a6984850651660c01b610393565b6000600460006109ad612763565b73ffffffffffffffffffffffffffffffffffffffff1673ffffffffffffffffffffffffffffffffffffffff16815260200190815260200160002060000181905550610a0267302e925020bb5dbf60c01b610393565b600060046000610a10612763565b73ffffffffffffffffffffffffffffffffffffffff1673ffffffffffffffffffffffffffffffffffffffff16815260200190815260200160002060030181905550610a6567751cd013f061a5c860c01b610393565b600060046000610a73612763565b73ffffffffffffffffffffffffffffffffffffffff1673ffffffffffffffffffffffffffffffffffffffff16815260200190815260200160002060020181905550610ac86774222c66b709236f60c01b610393565b610adc670941bc076d99338860c01b610393565b6000610ae6612763565b73ffffffffffffffffffffffffffffffffffffffff1682604051610b09906133b0565b60006040518083038185875af1925050503d8060008114610b46576040519150601f19603f3d011682016040523d82523d6000602084013e610b4b565b606091505b50509050610b63672dc98e5e10dd29ed60c01b610393565b610b77672dbed6d02ff4a69d60c01b610393565b610b8b676371f5f6e6a4ff6960c01b610393565b80610bcb576040517f08c379a0000000000000000000000000000000000000000000000000000000008152600401610bc290613411565b60405180910390fd5b610bdf67d08733ad38db4e1260c01b610393565b610bf367e5cd08ed00dbd02560c01b610393565b610c0767b7c8ed2fa503fe1960c01b610393565b600160009054906101000a900473ffffffffffffffffffffffffffffffffffffffff1673ffffffffffffffffffffffffffffffffffffffff1663a9059cbb610c4d612763565b856040518363ffffffff1660e01b8152600401610c6b929190613431565b6020604051808303816000875af1158015610c8a573d6000803e3d6000fd5b505050506040513d601f19601f82011682018060405250810190610cae9190613486565b50505050565b610cc86747bb26d28847fd5a60c01b610393565b610cdc67b24243ac48e7feeb60c01b610393565b610cf0675d1dfc1e94f7722560c01b610393565b610d0467d7306c89fc10157360c01b610393565b610d1867636c5e9f9b2598f560c01b610393565b600060046000610d26612763565b73ffffffffffffffffffffffffffffffffffffffff1673ffffffffffffffffffffffffffffffffffffffff1681526020019081526020016000206004015411610da4576040517f08c379a0000000000000000000000000000000000000000000000000000000008152600401610d9b90613525565b60405180910390fd5b610db867b010f9cd6cb4202860c01b610393565b610dcc673b71cb1286e0e63f60c01b610393565b610de0676116fa567903624d60c01b610393565b610df467023905d6671e295060c01b610393565b610e08675cfd5b685882364760c01b610393565b610e1c678c7f44afa777990b60c01b610393565b610e3067c513075c0f99031060c01b610393565b600060046000610e3e612763565b73ffffffffffffffffffffffffffffffffffffffff1673ffffffffffffffffffffffffffffffffffffffff1681526020019081526020016000206004015411610ebc576040517f08c379a0000000000000000000000000000000000000000000000000000000008152600401610eb390613525565b60405180910390fd5b610ed067e53ff66e8795433260c01b610393565b610ee4672313a0db2a9cfdd160c01b610393565b610ef8674d032f44e8dcd7b960c01b610393565b600060046000610f06612763565b73ffffffffffffffffffffffffffffffffffffffff1673ffffffffffffffffffffffffffffffffffffffff168152602001908152602001600020600401549050610f5a672fa798df2345270a60c01b610393565b600060046000610f68612763565b73ffffffffffffffffffffffffffffffffffffffff1673ffffffffffffffffffffffffffffffffffffffff16815260200190815260200160002060040181905550610fbd672d24d4f89f6893db60c01b610393565b610fd1679283bc91e91ce91160c01b610393565b6000600160009054906101000a900473ffffffffffffffffffffffffffffffffffffffff1673ffffffffffffffffffffffffffffffffffffffff1663a9059cbb611019612763565b846040518363ffffffff1660e01b8152600401611037929190613431565b6020604051808303816000875af1158015611056573d6000803e3d6000fd5b505050506040513d601f19601f8201168201806040525081019061107a9190613486565b9050611090679881e9cc46e52a4460c01b610393565b6110a467920d7af721f0ca0b60c01b610393565b6110b8674dfdb2aba06af48a60c01b610393565b806110f8576040517f08c379a00000000000000000000000000000000000000000000000000000000081526004016110ef90613591565b60405180910390fd5b61110c67fcaffd686e2212f260c01b610393565b61112067138a5bf4bbe92c0360c01b610393565b611134675feb09bdb75a756360c01b610393565b61113c612763565b73ffffffffffffffffffffffffffffffffffffffff167f1f89f96333d3133000ee447473151fa9606543368f02271c9d95ae14f13bcc67836040516111819190612f19565b60405180910390a25050565b611195612d38565b6111a967831545eec8d67bbb60c01b610393565b6111bd6757e024528fe6baa960c01b610393565b6111d167167364647e6067df60c01b610393565b600460008373ffffffffffffffffffffffffffffffffffffffff1673ffffffffffffffffffffffffffffffffffffffff1681526020019081526020016000206040518060c001604052908160008201548152602001600182015481526020016002820154815260200160038201548152602001600482015481526020016005820160009054906101000a900460ff1615151515815250509050919050565b60006112856777aa91711fdc32b360c01b610393565b61129967063d67147909b17260c01b610393565b6112ad674a3f2a78dd971c3460c01b610393565b600160009054906101000a900473ffffffffffffffffffffffffffffffffffffffff1673ffffffffffffffffffffffffffffffffffffffff166370a08231306040518263ffffffff1660e01b81526004016113089190612f43565b602060405180830381865afa158015611325573d6000803e3d6000fd5b505050506040513d601f19601f8201168201806040525081019061134991906135c6565b905090565b611356612bf6565b6113606000612c74565b565b60008060009054906101000a900473ffffffffffffffffffffffffffffffffffffffff16905090565b60006113a167a3d5bcecb9e448a760c01b610393565b6113b5678bf83353bfae7e4660c01b610393565b6113c96730b45e4cfe83450160c01b610393565b6000600360009054906101000a900473ffffffffffffffffffffffffffffffffffffffff1673ffffffffffffffffffffffffffffffffffffffff1663feaf968c6040518163ffffffff1660e01b815260040160a060405180830381865afa158015611438573d6000803e3d6000fd5b505050506040513d601f19601f8201168201806040525081019061145c9190613661565b5050509150506114766795b5fdcff4686eba60c01b610393565b61148a67260d74aedd01067a60c01b610393565b8091505090565b6114a567e2ffe1349afa6dac60c01b610393565b6114ad612bf6565b6114c167bb7903e6107fc62860c01b610393565b6114d567e9d900dacc77374c60c01b610393565b6114e967ec5e34e0e4bc755760c01b610393565b6114fd67a5848dd27ad403d060c01b610393565b600560008373ffffffffffffffffffffffffffffffffffffffff1673ffffffffffffffffffffffffffffffffffffffff1681526020019081526020016000206000018190806001815401808255809150506001900390600052602060002001600090919091909150555050565b61157e67501048f29ac56f2660c01b610393565b611592670c77f885d9110daf60c01b610393565b6115a66748100099aefe879360c01b610393565b6115ba67abcb28d0fc08652460c01b610393565b600081116115fd576040517f08c379a00000000000000000000000000000000000000000000000000000000081526004016115f49061374e565b60405180910390fd5b61161167837b9238d927976860c01b610393565b611625677f6654189b23c1a960c01b610393565b611639675a6be0f249cc691960c01b610393565b61164d670d26e2725f5341d060c01b610393565b60003411611690576040517f08c379a0000000000000000000000000000000000000000000000000000000008152600401611687906137e0565b60405180910390fd5b6116a4677de17832c2f6e6cd60c01b610393565b6116b8675a0897e17ee4d08a60c01b610393565b6116cc67b399556ab48e57fe60c01b610393565b6116e0670d98d1cc7299f50d60c01b610393565b80600160009054906101000a900473ffffffffffffffffffffffffffffffffffffffff1673ffffffffffffffffffffffffffffffffffffffff166370a08231611727612763565b6040518263ffffffff1660e01b81526004016117439190612f43565b602060405180830381865afa158015611760573d6000803e3d6000fd5b505050506040513d601f19601f8201168201806040525081019061178491906135c6565b10156117c5576040517f08c379a00000000000000000000000000000000000000000000000000000000081526004016117bc90613872565b60405180910390fd5b6117d9671d1caf64386250d260c01b610393565b6117ed67f9d5cb90bafe30ca60c01b610393565b61180167a788aa3f8affe24260c01b610393565b61181567623c197d03e7448360c01b610393565b60046000611821612763565b73ffffffffffffffffffffffffffffffffffffffff1673ffffffffffffffffffffffffffffffffffffffff16815260200190815260200160002060050160009054906101000a900460ff16156118ac576040517f08c379a00000000000000000000000000000000000000000000000000000000081526004016118a3906138de565b60405180910390fd5b6118c067d4b1cd016b55449660c01b610393565b6118d46794e4181453990c1260c01b610393565b42600460006118e1612763565b73ffffffffffffffffffffffffffffffffffffffff1673ffffffffffffffffffffffffffffffffffffffff1681526020019081526020016000206002018190555061193667818f8786292ac82960c01b610393565b8060046000611943612763565b73ffffffffffffffffffffffffffffffffffffffff1673ffffffffffffffffffffffffffffffffffffffff168152602001908152602001600020600101600082825461198f919061392d565b925050819055506119aa67d9809c30d221855160c01b610393565b34600460006119b7612763565b73ffffffffffffffffffffffffffffffffffffffff1673ffffffffffffffffffffffffffffffffffffffff1681526020019081526020016000206000016000828254611a03919061392d565b92505081905550611a1e673724a72283a8d52060c01b610393565b611a2661138b565b60046000611a32612763565b73ffffffffffffffffffffffffffffffffffffffff1673ffffffffffffffffffffffffffffffffffffffff16815260200190815260200160002060030181905550611a87673763178781b6380b60c01b610393565b600160046000611a95612763565b73ffffffffffffffffffffffffffffffffffffffff1673ffffffffffffffffffffffffffffffffffffffff16815260200190815260200160002060050160006101000a81548160ff021916908315150217905550611afd67079a1d0c7c68a3d360c01b610393565b611b11675f8a6bc6f3eee92060c01b610393565b600160009054906101000a900473ffffffffffffffffffffffffffffffffffffffff1673ffffffffffffffffffffffffffffffffffffffff166323b872dd611b57612763565b30846040518463ffffffff1660e01b8152600401611b7793929190613961565b6020604051808303816000875af1158015611b96573d6000803e3d6000fd5b505050506040513d601f19601f82011682018060405250810190611bba9190613486565b5050565b6000611bd4679980a3c38bca77ac60c01b610393565b611be867ac8203949382a0f260c01b610393565b611bfc6713cfb257ba7aae5160c01b610393565b611c106725ed91cadd5cc63e60c01b610393565b60008211611c53576040517f08c379a0000000000000000000000000000000000000000000000000000000008152600401611c4a90613a0a565b60405180910390fd5b611c676754f47b8c7e743a1e60c01b610393565b611c7b679268aa30a49a0a8560c01b610393565b611c8f6793ab4124a31acc6960c01b610393565b6000611c9961138b565b9050611caf671c9d23de2f8d043e60c01b610393565b611cc36734c674f22757d5b760c01b610393565b60006002548285611cd49190613a2a565b611cde9190613a9b565b9050611cf46776d0ce07cecfead360c01b610393565b611d0867e66803cae117eeed60c01b610393565b8092505050919050565b611d2667c7263dbcd4ea43f660c01b610393565b611d3a6789f6c6a00b4789c360c01b610393565b611d4e6709f00745d63a51a660c01b610393565b611d6267673f6bf821a8a0c460c01b610393565b6019600160009054906101000a900473ffffffffffffffffffffffffffffffffffffffff1673ffffffffffffffffffffffffffffffffffffffff166370a08231336040518263ffffffff1660e01b8152600401611dbf9190612f43565b602060405180830381865afa158015611ddc573d6000803e3d6000fd5b505050506040513d601f19601f82011682018060405250810190611e0091906135c6565b1015611e41576040517f08c379a0000000000000000000000000000000000000000000000000000000008152600401611e3890613b3e565b60405180910390fd5b611e5567ab1a2e41ce2e936c60c01b610393565b611e6967fe7066758d4fd07160c01b610393565b611e7d675205bae863d008e760c01b610393565b611e9167a62733f11932c86760c01b610393565b6001151560078281548110611ea957611ea8613b5e565b5b906000526020600020906006020160050160019054906101000a900460ff16151514611f0a576040517f08c379a0000000000000000000000000000000000000000000000000000000008152600401611f0190613bff565b60405180910390fd5b611f1e67db50028a4f21c32160c01b610393565b611f326735752edb4bbdc1e560c01b610393565b611f4667a8772da43c98cee460c01b610393565b600060078281548110611f5c57611f5b613b5e565b5b90600052602060002090600602019050611f8067fe8d90623cb6e54860c01b610393565b611f9467be8b903fd8b259da60c01b610393565b6000339050611fad678bfc3384ebf3938c60c01b610393565b611fc1671df96170657a7d0160c01b610393565b600082600401805490509050611fe1678c8a055e81263d2560c01b610393565b611ff56764252d6d0afff8ca60c01b610393565b60008190505b600081111561215b57612018675d10085cd0d8980c60c01b610393565b61202c67557a07f22ab3983660c01b610393565b60008460040160018361203f9190613c1f565b815481106120505761204f613b5e565b5b9060005260206000200160009054906101000a900473ffffffffffffffffffffffffffffffffffffffff16905061209167ae4c75217af6644d60c01b610393565b6120a5672f474b4b7e35d8c460c01b610393565b600160009054906101000a900473ffffffffffffffffffffffffffffffffffffffff1673ffffffffffffffffffffffffffffffffffffffff166323b872dd858360196040518463ffffffff1660e01b815260040161210593929190613c98565b6020604051808303816000875af1158015612124573d6000803e3d6000fd5b505050506040513d601f19601f820116820180604052508101906121489190613486565b50508061215490613ccf565b9050611ffb565b5061217067c50a7bb3a091200060c01b610393565b612184673ddd76257717b23260c01b610393565b600160009054906101000a900473ffffffffffffffffffffffffffffffffffffffff1673ffffffffffffffffffffffffffffffffffffffff166323b872dd833060196040518463ffffffff1660e01b81526004016121e493929190613c98565b6020604051808303816000875af1158015612203573d6000803e3d6000fd5b505050506040513d601f19601f820116820180604052508101906122279190613486565b5061223c6770e49048d7b2b49d60c01b610393565b61225067c583614a0b55034860c01b610393565b600160009054906101000a900473ffffffffffffffffffffffffffffffffffffffff1673ffffffffffffffffffffffffffffffffffffffff166323b872dd838560010160009054906101000a900473ffffffffffffffffffffffffffffffffffffffff1660196040518463ffffffff1660e01b81526004016122d493929190613c98565b6020604051808303816000875af11580156122f3573d6000803e3d6000fd5b505050506040513d601f19601f820116820180604052508101906123179190613486565b5050505050565b6123326773b768e1159d5ab160c01b610393565b61234667b7862d4c80b3057260c01b610393565b8383600560003373ffffffffffffffffffffffffffffffffffffffff1673ffffffffffffffffffffffffffffffffffffffff1681526020019081526020016000206001019182612397929190613f34565b506123ac6776f7defe83025b4760c01b610393565b8181600560003373ffffffffffffffffffffffffffffffffffffffff1673ffffffffffffffffffffffffffffffffffffffff16815260200190815260200160002060020191826123fd929190613f34565b5050505050565b61241867cbebace9877a3b4360c01b610393565b612420612bf6565b612434676761ec93ee10882b60c01b610393565b61244867f2d62cd52d0d020860c01b610393565b61245c67164d4297f6c7548260c01b610393565b61247067ce8674f2c65e1c4e60c01b610393565b61248467f824cbab24b659c560c01b610393565b600047116124c7576040517f08c379a00000000000000000000000000000000000000000000000000000000081526004016124be90614050565b60405180910390fd5b6124db67c6ab65209cac855960c01b610393565b6124ef6781379bcac56e57a060c01b610393565b61250367bfb3a24c68fbfd2360c01b610393565b61250b611362565b73ffffffffffffffffffffffffffffffffffffffff166108fc479081150290604051600060405180830381858888f19350505050158015612550573d6000803e3d6000fd5b50565b61255b612bf6565b600073ffffffffffffffffffffffffffffffffffffffff168173ffffffffffffffffffffffffffffffffffffffff16036125ca576040517f08c379a00000000000000000000000000000000000000000000000000000000081526004016125c1906140e2565b60405180910390fd5b6125d381612c74565b50565b6125de612d70565b6125f26776128dfb96c80fd760c01b610393565b61260667336d04b192ee5ce360c01b610393565b61261a676aac5ba0e2651fe060c01b610393565b612622612d70565b61263667cd0123ad8914e0dd60c01b610393565b670de0b6b3a76400004761264a9190613a9b565b8160006002811061265e5761265d613b5e565b5b60200201818152505061267b67e9f76067f7cc18bc60c01b610393565b600160009054906101000a900473ffffffffffffffffffffffffffffffffffffffff1673ffffffffffffffffffffffffffffffffffffffff166370a08231306040518263ffffffff1660e01b81526004016126d69190612f43565b602060405180830381865afa1580156126f3573d6000803e3d6000fd5b505050506040513d601f19601f8201168201806040525081019061271791906135c6565b8160016002811061272b5761272a613b5e565b5b602002018181525050612748675016e88cd8a868a060c01b610393565b61275c672ae5127cdbbcb25560c01b610393565b8091505090565b600033905090565b61277f673efd09b5909f876560c01b610393565b61279367ea8a4820c102960e60c01b610393565b6127a767f018bbda15b577c760c01b610393565b600160009054906101000a900473ffffffffffffffffffffffffffffffffffffffff1673ffffffffffffffffffffffffffffffffffffffff1663a9059cbb84846040518363ffffffff1660e01b8152600401612804929190613431565b6020604051808303816000875af1158015612823573d6000803e3d6000fd5b505050506040513d601f19601f820116820180604052508101906128479190613486565b5061285c67cfedad46ac3d190e60c01b610393565b61287067125d8098b1ccae4160c01b610393565b8273ffffffffffffffffffffffffffffffffffffffff167f77f92a1b6a1a11de8ca49515ad4c1fad45632dd3442167d74b90b304a3c7a75882846040516128b8929190614102565b60405180910390a2505050565b6128d967e6543d1c3f63b77560c01b610393565b6128ed67c2b335b4246b6da260c01b610393565b61290167430d6255d7a5353460c01b610393565b60006004600061290f612763565b73ffffffffffffffffffffffffffffffffffffffff1673ffffffffffffffffffffffffffffffffffffffff16815260200190815260200160002060020154426129589190613c1f565b905061296e677953c3fe26e5327460c01b610393565b612982671243da628820214560c01b610393565b600060046000612990612763565b73ffffffffffffffffffffffffffffffffffffffff1673ffffffffffffffffffffffffffffffffffffffff16815260200190815260200160002060030154600460006129da612763565b73ffffffffffffffffffffffffffffffffffffffff1673ffffffffffffffffffffffffffffffffffffffff16815260200190815260200160002060000154612a229190613a2a565b60046000612a2e612763565b73ffffffffffffffffffffffffffffffffffffffff1673ffffffffffffffffffffffffffffffffffffffff16815260200190815260200160002060010154612a76919061392d565b9050612a8c6760cf95fb5242b6a660c01b610393565b612aa067a27909d334fd45b460c01b610393565b6000600f9050612aba6754c46eca88ce5dcc60c01b610393565b612ace67d37c47f400fe9bd260c01b610393565b600060649050612ae8678baedd333e06f6f860c01b610393565b612afc679152bf4e8a0e35de60c01b610393565b6000818385612b0b9190613a2a565b612b159190613a9b565b9050612b2b67ed878daaf2edf75860c01b610393565b612b3f67ace8b5c99faac19c60c01b610393565b60006301e1432082612b519190613a9b565b9050612b6767623e477534afbd8d60c01b610393565b612b7b671f2a84c28db8340260c01b610393565b60008187612b899190613a2a565b9050612b9f678df5fce8dd4611d060c01b610393565b8060046000612bac612763565b73ffffffffffffffffffffffffffffffffffffffff1673ffffffffffffffffffffffffffffffffffffffff1681526020019081526020016000206004018190555050505050505050565b612bfe612763565b73ffffffffffffffffffffffffffffffffffffffff16612c1c611362565b73ffffffffffffffffffffffffffffffffffffffff1614612c72576040517f08c379a0000000000000000000000000000000000000000000000000000000008152600401612c6990614177565b60405180910390fd5b565b60008060009054906101000a900473ffffffffffffffffffffffffffffffffffffffff169050816000806101000a81548173ffffffffffffffffffffffffffffffffffffffff021916908373ffffffffffffffffffffffffffffffffffffffff1602179055508173ffffffffffffffffffffffffffffffffffffffff168173ffffffffffffffffffffffffffffffffffffffff167f8be0079c531659141344cd1fd0a4f28419497f9722a3daafe3b4186f6b6457e060405160405180910390a35050565b6040518060c0016040528060008152602001600081526020016000815260200160008152602001600081526020016000151581525090565b6040518060400160405280600290602082028036833780820191505090505090565b600080fd5b600080fd5b600073ffffffffffffffffffffffffffffffffffffffff82169050919050565b6000612dc782612d9c565b9050919050565b612dd781612dbc565b8114612de257600080fd5b50565b600081359050612df481612dce565b92915050565b600060208284031215612e1057612e0f612d92565b5b6000612e1e84828501612de5565b91505092915050565b6000819050919050565b612e3a81612e27565b82525050565b6000819050919050565b612e5381612e40565b82525050565b60008115159050919050565b612e6e81612e59565b82525050565b60c082016000820151612e8a6000850182612e31565b506020820151612e9d6020850182612e31565b506040820151612eb06040850182612e31565b506060820151612ec36060850182612e4a565b506080820151612ed66080850182612e31565b5060a0820151612ee960a0850182612e65565b50505050565b600060c082019050612f046000830184612e74565b92915050565b612f1381612e27565b82525050565b6000602082019050612f2e6000830184612f0a565b92915050565b612f3d81612dbc565b82525050565b6000602082019050612f586000830184612f34565b92915050565b612f6781612e40565b82525050565b6000602082019050612f826000830184612f5e565b92915050565b612f9181612e27565b8114612f9c57600080fd5b50565b600081359050612fae81612f88565b92915050565b60008060408385031215612fcb57612fca612d92565b5b6000612fd985828601612de5565b9250506020612fea85828601612f9f565b9150509250929050565b60006020828403121561300a57613009612d92565b5b600061301884828501612f9f565b91505092915050565b600080fd5b600080fd5b600080fd5b60008083601f84011261304657613045613021565b5b8235905067ffffffffffffffff81111561306357613062613026565b5b60208301915083600182028301111561307f5761307e61302b565b5b9250929050565b600080600080604085870312156130a05761309f612d92565b5b600085013567ffffffffffffffff8111156130be576130bd612d97565b5b6130ca87828801613030565b9450945050602085013567ffffffffffffffff8111156130ed576130ec612d97565b5b6130f987828801613030565b925092505092959194509250565b600060029050919050565b600081905092915050565b6000819050919050565b60006131338383612e31565b60208301905092915050565b6000602082019050919050565b61315581613107565b61315f8184613112565b925061316a8261311d565b8060005b8381101561319b5781516131828782613127565b965061318d8361313f565b92505060018101905061316e565b505050505050565b60006040820190506131b8600083018461314c565b92915050565b600082825260208201905092915050565b7f596f752063616e27742073776170203020455448000000000000000000000000600082015250565b60006132056014836131be565b9150613210826131cf565b602082019050919050565b60006020820190508181036000830152613234816131f8565b9050919050565b7f45544820426c616e636520746f6f206c6f770000000000000000000000000000600082015250565b60006132716012836131be565b915061327c8261323b565b602082019050919050565b600060208201905081810360008301526132a081613264565b9050919050565b7f5265656e7472616e63792067756172643a206c6f636b65640000000000000000600082015250565b60006132dd6018836131be565b91506132e8826132a7565b602082019050919050565b6000602082019050818103600083015261330c816132d0565b9050919050565b7f596f7520617265206e6f74207374616b696e6700000000000000000000000000600082015250565b60006133496013836131be565b915061335482613313565b602082019050919050565b600060208201905081810360008301526133788161333c565b9050919050565b600081905092915050565b50565b600061339a60008361337f565b91506133a58261338a565b600082019050919050565b60006133bb8261338d565b9150819050919050565b7f455448207472616e73666572206661696c656400000000000000000000000000600082015250565b60006133fb6013836131be565b9150613406826133c5565b602082019050919050565b6000602082019050818103600083015261342a816133ee565b9050919050565b60006040820190506134466000830185612f34565b6134536020830184612f0a565b9392505050565b61346381612e59565b811461346e57600080fd5b50565b6000815190506134808161345a565b92915050565b60006020828403121561349c5761349b612d92565b5b60006134aa84828501613471565b91505092915050565b7f596f7520646f6e2774206861766520616e79207265776172647320746f20636c60008201527f61696d0000000000000000000000000000000000000000000000000000000000602082015250565b600061350f6023836131be565b915061351a826134b3565b604082019050919050565b6000602082019050818103600083015261353e81613502565b9050919050565b7f4661696c656420746f207472616e736665722072657761726473000000000000600082015250565b600061357b601a836131be565b915061358682613545565b602082019050919050565b600060208201905081810360008301526135aa8161356e565b9050919050565b6000815190506135c081612f88565b92915050565b6000602082840312156135dc576135db612d92565b5b60006135ea848285016135b1565b91505092915050565b600069ffffffffffffffffffff82169050919050565b613612816135f3565b811461361d57600080fd5b50565b60008151905061362f81613609565b92915050565b61363e81612e40565b811461364957600080fd5b50565b60008151905061365b81613635565b92915050565b600080600080600060a0868803121561367d5761367c612d92565b5b600061368b88828901613620565b955050602061369c8882890161364c565b94505060406136ad888289016135b1565b93505060606136be888289016135b1565b92505060806136cf88828901613620565b9150509295509295909350565b7f596f752063616e206f6e6c79207374616b65206d6f7265207468616e2030204c60008201527f554d490000000000000000000000000000000000000000000000000000000000602082015250565b60006137386023836131be565b9150613743826136dc565b604082019050919050565b600060208201905081810360008301526137678161372b565b9050919050565b7f596f752063616e206f6e6c79207374616b65206d6f7265207468616e2030204560008201527f5448000000000000000000000000000000000000000000000000000000000000602082015250565b60006137ca6022836131be565b91506137d58261376e565b604082019050919050565b600060208201905081810360008301526137f9816137bd565b9050919050565b7f596f752063616e2774207374616b65206d6f7265204c554d49207468616e207960008201527f6f75206861766500000000000000000000000000000000000000000000000000602082015250565b600061385c6027836131be565b915061386782613800565b604082019050919050565b6000602082019050818103600083015261388b8161384f565b9050919050565b7f596f752061726520616c7265616479207374616b696e67000000000000000000600082015250565b60006138c86017836131be565b91506138d382613892565b602082019050919050565b600060208201905081810360008301526138f7816138bb565b9050919050565b7f4e487b7100000000000000000000000000000000000000000000000000000000600052601160045260246000fd5b600061393882612e27565b915061394383612e27565b925082820190508082111561395b5761395a6138fe565b5b92915050565b60006060820190506139766000830186612f34565b6139836020830185612f34565b6139906040830184612f0a565b949350505050565b7f596f752063616e206f6e6c7920636f6e76657274206d6f7265207468616e203060008201527f2045544800000000000000000000000000000000000000000000000000000000602082015250565b60006139f46024836131be565b91506139ff82613998565b604082019050919050565b60006020820190508181036000830152613a23816139e7565b9050919050565b6000613a3582612e27565b9150613a4083612e27565b9250828202613a4e81612e27565b91508282048414831517613a6557613a646138fe565b5b5092915050565b7f4e487b7100000000000000000000000000000000000000000000000000000000600052601260045260246000fd5b6000613aa682612e27565b9150613ab183612e27565b925082613ac157613ac0613a6c565b5b828204905092915050565b7f596f75206e656564206174206c65617374203235204c554d4920746f2072656160008201527f6420612072657365617263680000000000000000000000000000000000000000602082015250565b6000613b28602c836131be565b9150613b3382613acc565b604082019050919050565b60006020820190508181036000830152613b5781613b1b565b9050919050565b7f4e487b7100000000000000000000000000000000000000000000000000000000600052603260045260246000fd5b7f54686973207265736561726368206973206e6f74207075626c6973686564207960008201527f6574000000000000000000000000000000000000000000000000000000000000602082015250565b6000613be96022836131be565b9150613bf482613b8d565b604082019050919050565b60006020820190508181036000830152613c1881613bdc565b9050919050565b6000613c2a82612e27565b9150613c3583612e27565b9250828203905081811115613c4d57613c4c6138fe565b5b92915050565b6000819050919050565b6000819050919050565b6000613c82613c7d613c7884613c53565b613c5d565b612e27565b9050919050565b613c9281613c67565b82525050565b6000606082019050613cad6000830186612f34565b613cba6020830185612f34565b613cc76040830184613c89565b949350505050565b6000613cda82612e27565b915060008203613ced57613cec6138fe565b5b600182039050919050565b600082905092915050565b7f4e487b7100000000000000000000000000000000000000000000000000000000600052604160045260246000fd5b7f4e487b7100000000000000000000000000000000000000000000000000000000600052602260045260246000fd5b60006002820490506001821680613d7957607f821691505b602082108103613d8c57613d8b613d32565b5b50919050565b60008190508160005260206000209050919050565b60006020601f8301049050919050565b600082821b905092915050565b600060088302613df47fffffffffffffffffffffffffffffffffffffffffffffffffffffffffffffffff82613db7565b613dfe8683613db7565b95508019841693508086168417925050509392505050565b6000613e31613e2c613e2784612e27565b613c5d565b612e27565b9050919050565b6000819050919050565b613e4b83613e16565b613e5f613e5782613e38565b848454613dc4565b825550505050565b600090565b613e74613e67565b613e7f818484613e42565b505050565b5b81811015613ea357613e98600082613e6c565b600181019050613e85565b5050565b601f821115613ee857613eb981613d92565b613ec284613da7565b81016020851015613ed1578190505b613ee5613edd85613da7565b830182613e84565b50505b505050565b600082821c905092915050565b6000613f0b60001984600802613eed565b1980831691505092915050565b6000613f248383613efa565b9150826002028217905092915050565b613f3e8383613cf8565b67ffffffffffffffff811115613f5757613f56613d03565b5b613f618254613d61565b613f6c828285613ea7565b6000601f831160018114613f9b5760008415613f89578287013590505b613f938582613f18565b865550613ffb565b601f198416613fa986613d92565b60005b82811015613fd157848901358255600182019150602085019450602081019050613fac565b86831015613fee5784890135613fea601f891682613efa565b8355505b6001600288020188555050505b50505050505050565b7f436f6e747261637420686173206e6f2045544820746f207472616e7366657200600082015250565b600061403a601f836131be565b915061404582614004565b602082019050919050565b600060208201905081810360008301526140698161402d565b9050919050565b7f4f776e61626c653a206e6577206f776e657220697320746865207a65726f206160008201527f6464726573730000000000000000000000000000000000000000000000000000602082015250565b60006140cc6026836131be565b91506140d782614070565b604082019050919050565b600060208201905081810360008301526140fb816140bf565b9050919050565b60006040820190506141176000830185612f0a565b6141246020830184612f0a565b9392505050565b7f4f776e61626c653a2063616c6c6572206973206e6f7420746865206f776e6572600082015250565b60006141616020836131be565b915061416c8261412b565b602082019050919050565b6000602082019050818103600083015261419081614154565b905091905056fea264697066735822122086edfb2ebb82c94686a5c78ca01fe690d65dab48b4771a3fa30426181df4815d64736f6c63430008120033",
  "linkReferences": {},
  "deployedLinkReferences": {}
}