{
  "_format": "hh-sol-artifact-1",
  "contractName": "Lumina",
  "sourceName": "contracts/Lumina.sol",
  "abi": [
    {
      "inputs": [
        {
          "internalType": "address",
          "name": "_lumiAddress",
          "type": "address"
        },
        {
          "internalType": "address",
          "name": "_dataFeedAddress",
          "type": "address"
        }
      ],
      "stateMutability": "nonpayable",
      "type": "constructor"
    },
    {
      "anonymous": false,
      "inputs": [
        {
          "indexed": true,
          "internalType": "address",
          "name": "_from",
          "type": "address"
        },
        {
          "indexed": false,
          "internalType": "uint256",
          "name": "_amountLumi",
          "type": "uint256"
        }
      ],
      "name": "ClaimRewards",
      "type": "event"
    },
    {
      "anonymous": false,
      "inputs": [
        {
          "indexed": true,
          "internalType": "address",
          "name": "previousOwner",
          "type": "address"
        },
        {
          "indexed": true,
          "internalType": "address",
          "name": "newOwner",
          "type": "address"
        }
      ],
      "name": "OwnershipTransferred",
      "type": "event"
    },
    {
      "anonymous": false,
      "inputs": [
        {
          "indexed": true,
          "internalType": "address",
          "name": "_from",
          "type": "address"
        },
        {
          "indexed": false,
          "internalType": "uint256",
          "name": "_amountLumi",
          "type": "uint256"
        },
        {
          "indexed": false,
          "internalType": "uint256",
          "name": "_amountEth",
          "type": "uint256"
        }
      ],
      "name": "Stake",
      "type": "event"
    },
    {
      "anonymous": false,
      "inputs": [
        {
          "indexed": true,
          "internalType": "address",
          "name": "_from",
          "type": "address"
        },
        {
          "indexed": false,
          "internalType": "uint256",
          "name": "_amountETH",
          "type": "uint256"
        },
        {
          "indexed": false,
          "internalType": "uint256",
          "name": "_amountLUMI",
          "type": "uint256"
        }
      ],
      "name": "Swap",
      "type": "event"
    },
    {
      "anonymous": false,
      "inputs": [
        {
          "indexed": true,
          "internalType": "address",
          "name": "_from",
          "type": "address"
        },
        {
          "indexed": false,
          "internalType": "uint256",
          "name": "_amountLumi",
          "type": "uint256"
        },
        {
          "indexed": false,
          "internalType": "uint256",
          "name": "_amountEth",
          "type": "uint256"
        }
      ],
      "name": "UnStake",
      "type": "event"
    },
    {
      "anonymous": false,
      "inputs": [
        {
          "indexed": true,
          "internalType": "address",
          "name": "_from",
          "type": "address"
        },
        {
          "indexed": false,
          "internalType": "string",
          "name": "_domain",
          "type": "string"
        },
        {
          "indexed": false,
          "internalType": "string",
          "name": "_references",
          "type": "string"
        }
      ],
      "name": "contributorHasApply",
      "type": "event"
    },
    {
      "stateMutability": "payable",
      "type": "fallback"
    },
    {
      "inputs": [
        {
          "internalType": "string",
          "name": "_domain",
          "type": "string"
        },
        {
          "internalType": "string",
          "name": "_title",
          "type": "string"
        },
        {
          "internalType": "uint256",
          "name": "_budget",
          "type": "uint256"
        }
      ],
      "name": "addResearch",
      "outputs": [],
      "stateMutability": "nonpayable",
      "type": "function"
    },
    {
      "inputs": [
        {
          "internalType": "address",
          "name": "_address",
          "type": "address"
        },
        {
          "internalType": "uint256",
          "name": "_researchId",
          "type": "uint256"
        }
      ],
      "name": "assignContributor",
      "outputs": [],
      "stateMutability": "nonpayable",
      "type": "function"
    },
    {
      "inputs": [],
      "name": "claimRewards",
      "outputs": [],
      "stateMutability": "nonpayable",
      "type": "function"
    },
    {
      "inputs": [
        {
          "internalType": "string",
          "name": "_domain",
          "type": "string"
        },
        {
          "internalType": "string",
          "name": "_references",
          "type": "string"
        }
      ],
      "name": "contributorApplication",
      "outputs": [],
      "stateMutability": "nonpayable",
      "type": "function"
    },
    {
      "inputs": [
        {
          "internalType": "uint256",
          "name": "_amountETH",
          "type": "uint256"
        }
      ],
      "name": "convertETHToLumi",
      "outputs": [
        {
          "internalType": "uint256",
          "name": "",
          "type": "uint256"
        }
      ],
      "stateMutability": "view",
      "type": "function"
    },
    {
      "inputs": [],
      "name": "getContractBalances",
      "outputs": [
        {
          "internalType": "uint256[2]",
          "name": "",
          "type": "uint256[2]"
        }
      ],
      "stateMutability": "view",
      "type": "function"
    },
    {
      "inputs": [],
      "name": "getLatestPrice",
      "outputs": [
        {
          "internalType": "int256",
          "name": "",
          "type": "int256"
        }
      ],
      "stateMutability": "view",
      "type": "function"
    },
    {
      "inputs": [],
      "name": "getPublishedResearches",
      "outputs": [
        {
          "components": [
            {
              "internalType": "uint256",
              "name": "id",
              "type": "uint256"
            },
            {
              "internalType": "address",
              "name": "depositor",
              "type": "address"
            },
            {
              "internalType": "string",
              "name": "domain",
              "type": "string"
            },
            {
              "internalType": "string",
              "name": "title",
              "type": "string"
            },
            {
              "internalType": "address",
              "name": "contributor",
              "type": "address"
            },
            {
              "internalType": "uint256",
              "name": "budget",
              "type": "uint256"
            },
            {
              "internalType": "bool",
              "name": "isPublished",
              "type": "bool"
            },
            {
              "internalType": "bool",
              "name": "isRejected",
              "type": "bool"
            }
          ],
          "internalType": "struct Lumina.Research[]",
          "name": "",
          "type": "tuple[]"
        }
      ],
      "stateMutability": "view",
      "type": "function"
    },
    {
      "inputs": [],
      "name": "getReadingPermissions",
      "outputs": [
        {
          "internalType": "uint256[]",
          "name": "",
          "type": "uint256[]"
        }
      ],
      "stateMutability": "view",
      "type": "function"
    },
    {
      "inputs": [],
      "name": "getResearches",
      "outputs": [
        {
          "components": [
            {
              "internalType": "uint256",
              "name": "id",
              "type": "uint256"
            },
            {
              "internalType": "address",
              "name": "depositor",
              "type": "address"
            },
            {
              "internalType": "string",
              "name": "domain",
              "type": "string"
            },
            {
              "internalType": "string",
              "name": "title",
              "type": "string"
            },
            {
              "internalType": "address",
              "name": "contributor",
              "type": "address"
            },
            {
              "internalType": "uint256",
              "name": "budget",
              "type": "uint256"
            },
            {
              "internalType": "bool",
              "name": "isPublished",
              "type": "bool"
            },
            {
              "internalType": "bool",
              "name": "isRejected",
              "type": "bool"
            }
          ],
          "internalType": "struct Lumina.Research[]",
          "name": "",
          "type": "tuple[]"
        }
      ],
      "stateMutability": "view",
      "type": "function"
    },
    {
      "inputs": [
        {
          "internalType": "address",
          "name": "_address",
          "type": "address"
        }
      ],
      "name": "getStakingData",
      "outputs": [
        {
          "components": [
            {
              "internalType": "uint256",
              "name": "amountEth",
              "type": "uint256"
            },
            {
              "internalType": "uint256",
              "name": "amountLumi",
              "type": "uint256"
            },
            {
              "internalType": "uint256",
              "name": "timestamp",
              "type": "uint256"
            },
            {
              "internalType": "int256",
              "name": "ethPrice",
              "type": "int256"
            },
            {
              "internalType": "uint256",
              "name": "reward",
              "type": "uint256"
            },
            {
              "internalType": "bool",
              "name": "isStaking",
              "type": "bool"
            }
          ],
          "internalType": "struct Lumina.StakedTokens",
          "name": "",
          "type": "tuple"
        }
      ],
      "stateMutability": "view",
      "type": "function"
    },
    {
      "inputs": [
        {
          "internalType": "address",
          "name": "_address",
          "type": "address"
        }
      ],
      "name": "getUserBalance",
      "outputs": [
        {
          "internalType": "uint256",
          "name": "",
          "type": "uint256"
        }
      ],
      "stateMutability": "view",
      "type": "function"
    },
    {
      "inputs": [],
      "name": "lumi",
      "outputs": [
        {
          "internalType": "contract IERC20",
          "name": "",
          "type": "address"
        }
      ],
      "stateMutability": "view",
      "type": "function"
    },
    {
      "inputs": [],
      "name": "owner",
      "outputs": [
        {
          "internalType": "address",
          "name": "",
          "type": "address"
        }
      ],
      "stateMutability": "view",
      "type": "function"
    },
    {
      "inputs": [
        {
          "internalType": "uint256",
          "name": "_researchId",
          "type": "uint256"
        }
      ],
      "name": "readingResearch",
      "outputs": [],
      "stateMutability": "nonpayable",
      "type": "function"
    },
    {
      "inputs": [
        {
          "internalType": "uint256",
          "name": "_researchId",
          "type": "uint256"
        }
      ],
      "name": "rejectResearch",
      "outputs": [],
      "stateMutability": "nonpayable",
      "type": "function"
    },
    {
      "inputs": [],
      "name": "renounceOwnership",
      "outputs": [],
      "stateMutability": "nonpayable",
      "type": "function"
    },
    {
      "inputs": [
        {
          "internalType": "uint256",
          "name": "_amount",
          "type": "uint256"
        }
      ],
      "name": "stake",
      "outputs": [],
      "stateMutability": "payable",
      "type": "function"
    },
    {
      "inputs": [],
      "name": "swap",
      "outputs": [],
      "stateMutability": "payable",
      "type": "function"
    },
    {
      "inputs": [],
      "name": "transferEthToOwner",
      "outputs": [],
      "stateMutability": "nonpayable",
      "type": "function"
    },
    {
      "inputs": [
        {
          "internalType": "address",
          "name": "newOwner",
          "type": "address"
        }
      ],
      "name": "transferOwnership",
      "outputs": [],
      "stateMutability": "nonpayable",
      "type": "function"
    },
    {
      "inputs": [],
      "name": "unstake",
      "outputs": [],
      "stateMutability": "nonpayable",
      "type": "function"
    },
    {
      "inputs": [
        {
          "internalType": "uint256",
          "name": "_researchId",
          "type": "uint256"
        }
      ],
      "name": "validateResearch",
      "outputs": [],
      "stateMutability": "nonpayable",
      "type": "function"
    },
    {
      "stateMutability": "payable",
      "type": "receive"
    }
  ],
  "bytecode": "0x60a06040523480156200001157600080fd5b5060405162002afc38038062002afc8339810160408190526200003491620000d9565b6200003f336200006c565b6001600160a01b0391821660805260018055600280546001600160a01b0319169190921617905562000111565b600080546001600160a01b038381166001600160a01b0319831681178455604051919092169283917f8be0079c531659141344cd1fd0a4f28419497f9722a3daafe3b4186f6b6457e09190a35050565b80516001600160a01b0381168114620000d457600080fd5b919050565b60008060408385031215620000ed57600080fd5b620000f883620000bc565b91506200010860208401620000bc565b90509250929050565b6080516129826200017a6000396000818161040d0152818161091101528181610a2701528181610b7701528181610c7901528181610f4d0152818161129c015281816113f101528181611682015281816117db01528181611ec30152611f5e01526129826000f3fe6080604052600436106101385760003560e01c80638da5cb5b116100b0578063c12b8b6a1161006c578063c12b8b6a14610386578063c2058546146103a6578063d4cbd6a7146103c6578063f2fde38b146103db578063fae7f72d146103fb578063ffd2a7d31461042f57005b80638da5cb5b146102cc5780638e15f473146102fe57806390f86e34146103135780639d579f1814610333578063a694fc3a14610353578063aa49f5011461036657005b8063410084f7116100ff578063410084f7146101dc57806347734892146101f15780635c4894941461021f57806367a7b5f614610241578063715018a6146102af5780638119c065146102c457005b80631cdd44d5146101475780632895d475146101675780632def662014610192578063372500ab146101a75780633f37fa81146101bc57005b3661014557610145610451565b005b34801561015357600080fd5b5061014561016236600461218e565b6104bb565b34801561017357600080fd5b5061017c6105df565b60405161018991906121ed565b60405180910390f35b34801561019e57600080fd5b506101456107c5565b3480156101b357600080fd5b506101456109ae565b3480156101c857600080fd5b506101456101d736600461218e565b610b4f565b3480156101e857600080fd5b5061017c610d4e565b3480156101fd57600080fd5b5061021161020c3660046122ed565b610f2b565b604051908152602001610189565b34801561022b57600080fd5b50610234610fc0565b604051610189919061230f565b34801561024d57600080fd5b5061026161025c3660046122ed565b611021565b6040516101899190600060c082019050825182526020830151602083015260408301516040830152606083015160608301526080830151608083015260a0830151151560a083015292915050565b3480156102bb57600080fd5b506101456110c2565b610145610451565b3480156102d857600080fd5b506000546001600160a01b03165b6040516001600160a01b039091168152602001610189565b34801561030a57600080fd5b506102116110d6565b34801561031f57600080fd5b5061014561032e366004612353565b61116c565b34801561033f57600080fd5b5061014561034e366004612420565b611284565b61014561036136600461218e565b6115c0565b34801561037257600080fd5b5061021161038136600461218e565b6118fd565b34801561039257600080fd5b506101456103a136600461218e565b611989565b3480156103b257600080fd5b506101456103c13660046124bc565b611baa565b3480156103d257600080fd5b50610145611d77565b3480156103e757600080fd5b506101456103f63660046122ed565b611e0c565b34801561040757600080fd5b506102e67f000000000000000000000000000000000000000000000000000000000000000081565b34801561043b57600080fd5b50610444611e82565b6040516101899190612520565b6000341161049d5760405162461bcd60e51b81526020600482015260146024820152730b2deea40c6c2dc4ee840e6eec2e04060408aa8960631b60448201526064015b60405180910390fd5b600160006104aa346118fd565b90506104b7338234611f38565b5050565b3360009081526004602052604090206003015460ff166105195760405162461bcd60e51b81526020600482015260196024820152782cb7ba9030b932903737ba10309031b7b73a3934b13aba37b960391b6044820152606401610494565b6006818154811061052c5761052c612551565b6000918252602090912060079091020160060154610100900460ff161561059f5760405162461bcd60e51b815260206004820152602160248201527f5468697320726573656172636820697320616c72656164792072656a656374656044820152601960fa1b6064820152608401610494565b6001600682815481106105b4576105b4612551565b906000526020600020906007020160060160016101000a81548160ff02191690831515021790555050565b60606007805480602002602001604051908101604052809291908181526020016000905b828210156107bc5760008481526020908190206040805161010081018252600786029092018054835260018101546001600160a01b0316938301939093526002830180549293929184019161065790612567565b80601f016020809104026020016040519081016040528092919081815260200182805461068390612567565b80156106d05780601f106106a5576101008083540402835291602001916106d0565b820191906000526020600020905b8154815290600101906020018083116106b357829003601f168201915b505050505081526020016003820180546106e990612567565b80601f016020809104026020016040519081016040528092919081815260200182805461071590612567565b80156107625780601f1061073757610100808354040283529160200191610762565b820191906000526020600020905b81548152906001019060200180831161074557829003601f168201915b505050918352505060048201546001600160a01b03166020808301919091526005830154604083015260069092015460ff808216151560608401526101009091041615156080909101529082526001929092019101610603565b50505050905090565b3360009081526003602052604090206005015460ff1661081d5760405162461bcd60e51b8152602060048201526013602482015272596f7520617265206e6f74207374616b696e6760681b6044820152606401610494565b336000908152600360205260409020600181015481546005909201805460ff191690559061084961200d565b336000818152600360208190526040822060018101839055828155908101829055600201819055906001600160a01b03168260405160006040518083038185875af1925050503d80600081146108bb576040519150601f19603f3d011682016040523d82523d6000602084013e6108c0565b606091505b50509050806109075760405162461bcd60e51b8152602060048201526013602482015272115512081d1c985b9cd9995c8819985a5b1959606a1b6044820152606401610494565b6001600160a01b037f00000000000000000000000000000000000000000000000000000000000000001663a9059cbb336040516001600160e01b031960e084901b1681526001600160a01b039091166004820152602481018690526044016020604051808303816000875af1158015610984573d6000803e3d6000fd5b505050506040513d601f19601f820116820180604052508101906109a891906125a1565b50505050565b336000908152600360205260409020600401546109dd5760405162461bcd60e51b8152600401610494906125c3565b33600090815260036020526040902060040154610a0c5760405162461bcd60e51b8152600401610494906125c3565b336000818152600360205260408120600401805490829055917f00000000000000000000000000000000000000000000000000000000000000006001600160a01b03169063a9059cbb906040516001600160e01b031960e084901b1681526001600160a01b039091166004820152602481018590526044016020604051808303816000875af1158015610aa3573d6000803e3d6000fd5b505050506040513d601f19601f82011682018060405250810190610ac791906125a1565b905080610b165760405162461bcd60e51b815260206004820152601a60248201527f4661696c656420746f207472616e7366657220726577617264730000000000006044820152606401610494565b60405182815233907f1f89f96333d3133000ee447473151fa9606543368f02271c9d95ae14f13bcc679060200160405180910390a25050565b6000336040516370a0823160e01b81526001600160a01b038083166004830152919250601e917f000000000000000000000000000000000000000000000000000000000000000016906370a0823190602401602060405180830381865afa158015610bbe573d6000803e3d6000fd5b505050506040513d601f19601f82011682018060405250810190610be29190612606565b1015610c455760405162461bcd60e51b815260206004820152602c60248201527f596f75206e656564206174206c65617374203330204c554d4920746f2072656160448201526b0c840c240e4cae6cac2e4c6d60a31b6064820152608401610494565b6040516323b872dd60e01b81526001600160a01b0382811660048301523060248301526801a055690d9db8000060448301527f000000000000000000000000000000000000000000000000000000000000000016906323b872dd906064016020604051808303816000875af1158015610cc2573d6000803e3d6000fd5b505050506040513d601f19601f82011682018060405250810190610ce691906125a1565b610d245760405162461bcd60e51b815260206004820152600f60248201526e151c985b9cd9995c8819985a5b1959608a1b6044820152606401610494565b6001600160a01b031660009081526005602090815260408220805460018101825590835291200155565b60606006805480602002602001604051908101604052809291908181526020016000905b828210156107bc5760008481526020908190206040805161010081018252600786029092018054835260018101546001600160a01b03169383019390935260028301805492939291840191610dc690612567565b80601f0160208091040260200160405190810160405280929190818152602001828054610df290612567565b8015610e3f5780601f10610e1457610100808354040283529160200191610e3f565b820191906000526020600020905b815481529060010190602001808311610e2257829003601f168201915b50505050508152602001600382018054610e5890612567565b80601f0160208091040260200160405190810160405280929190818152602001828054610e8490612567565b8015610ed15780601f10610ea657610100808354040283529160200191610ed1565b820191906000526020600020905b815481529060010190602001808311610eb457829003601f168201915b505050918352505060048201546001600160a01b03166020808301919091526005830154604083015260069092015460ff808216151560608401526101009091041615156080909101529082526001929092019101610d72565b6040516370a0823160e01b81526001600160a01b0382811660048301526000917f0000000000000000000000000000000000000000000000000000000000000000909116906370a0823190602401602060405180830381865afa158015610f96573d6000803e3d6000fd5b505050506040513d601f19601f82011682018060405250810190610fba9190612606565b92915050565b3360009081526005602090815260409182902080548351818402810184019094528084526060939283018282801561101757602002820191906000526020600020905b815481526020019060010190808311611003575b5050505050905090565b61105c6040518060c0016040528060008152602001600081526020016000815260200160008152602001600081526020016000151581525090565b506001600160a01b0316600090815260036020818152604092839020835160c081018552815481526001820154928101929092526002810154938201939093529082015460608201526004820154608082015260059091015460ff16151560a082015290565b6110ca6120c6565b6110d46000612120565b565b600080600260009054906101000a90046001600160a01b03166001600160a01b031663feaf968c6040518163ffffffff1660e01b815260040160a060405180830381865afa15801561112c573d6000803e3d6000fd5b505050506040513d601f19601f820116820180604052508101906111509190612639565b5050509150506305f5e1008161116691906126b5565b91505090565b6111746120c6565b6001600160a01b03821660009081526004602052604090206003015460ff1615156001146111ee5760405162461bcd60e51b815260206004820152602160248201527f546869732061646472657373206973206e6f74206120636f6e7472696275746f6044820152603960f91b6064820152608401610494565b6001600160a01b038216600081815260046020908152604080832080546001818101835591855283852001869055938352600582528220805493840181558252902001819055600680548391908390811061124b5761124b612551565b906000526020600020906007020160040160006101000a8154816001600160a01b0302191690836001600160a01b031602179055505050565b6040516370a0823160e01b81523360048201526064907f00000000000000000000000000000000000000000000000000000000000000006001600160a01b0316906370a0823190602401602060405180830381865afa1580156112eb573d6000803e3d6000fd5b505050506040513d601f19601f8201168201806040525081019061130f9190612606565b10156113725760405162461bcd60e51b815260206004820152602c60248201527f596f75206e656564206174206c6561737420313030204c554d4920746f20616460448201526b0c840c240e4cae6cac2e4c6d60a31b6064820152608401610494565b60648110156113cf5760405162461bcd60e51b8152602060048201526024808201527f54686520627564676574206d757374206265206174206c6561737420313030206044820152634c554d4960e01b6064820152608401610494565b6040516323b872dd60e01b8152336004820152306024820152604481018290527f00000000000000000000000000000000000000000000000000000000000000006001600160a01b0316906323b872dd906064016020604051808303816000875af1158015611442573d6000803e3d6000fd5b505050506040513d601f19601f8201168201806040525081019061146691906125a1565b5060066040518061010001604052806006805490508152602001336001600160a01b0316815260200186868080601f016020809104026020016040519081016040528093929190818152602001838380828437600092018290525093855250505060208083018790526040808401839052606084018790526080840183905260a090930182905284546001808201875595835291819020845160079093020191825583015193810180546001600160a01b0319166001600160a01b039095169490941790935581015190919060028201906115419082612732565b50606082015160038201906115569082612732565b5060808201516004820180546001600160a01b039092166001600160a01b031990921691909117905560a0820151600582015560c08201516006909101805460e09093015115156101000261ff00199215159290921661ffff199093169290921717905550505050565b6000811161161c5760405162461bcd60e51b815260206004820152602360248201527f596f752063616e206f6e6c79207374616b65206d6f7265207468616e2030204c604482015262554d4960e81b6064820152608401610494565b600034116116775760405162461bcd60e51b815260206004820152602260248201527f596f752063616e206f6e6c79207374616b65206d6f7265207468616e203020456044820152610a8960f31b6064820152608401610494565b806001600160a01b037f0000000000000000000000000000000000000000000000000000000000000000166370a08231336040516001600160e01b031960e084901b1681526001600160a01b039091166004820152602401602060405180830381865afa1580156116ec573d6000803e3d6000fd5b505050506040513d601f19601f820116820180604052508101906117109190612606565b101561176e5760405162461bcd60e51b815260206004820152602760248201527f596f752063616e2774207374616b65206d6f7265204c554d49207468616e20796044820152666f75206861766560c81b6064820152608401610494565b3360009081526003602052604090206005015460ff16156117d15760405162461bcd60e51b815260206004820152601760248201527f596f752061726520616c7265616479207374616b696e670000000000000000006044820152606401610494565b6001600160a01b037f0000000000000000000000000000000000000000000000000000000000000000166323b872dd336040516001600160e01b031960e084901b1681526001600160a01b039091166004820152306024820152604481018490526064016020604051808303816000875af1158015611854573d6000803e3d6000fd5b505050506040513d601f19601f8201168201806040525081019061187891906125a1565b5033600090815260036020526040812042600282015560010180548392906118a19084906127f2565b909155505033600090815260036020526040812080543492906118c59084906127f2565b909155506118d390506110d6565b33600090815260036020819052604090912090810191909155600501805460ff1916600117905550565b600080821161195a5760405162461bcd60e51b8152602060048201526024808201527f596f752063616e206f6e6c7920636f6e76657274206d6f7265207468616e20306044820152630408aa8960e31b6064820152608401610494565b60006119646110d6565b9050600060015482856119779190612805565b611981919061281c565b949350505050565b3360009081526004602052604090206003015460ff166119e75760405162461bcd60e51b81526020600482015260196024820152782cb7ba9030b932903737ba10309031b7b73a3934b13aba37b960391b6044820152606401610494565b600681815481106119fa576119fa612551565b600091825260209091206006600790920201015460ff1615611a695760405162461bcd60e51b815260206004820152602260248201527f5468697320726573656172636820697320616c7265616479207075626c697368604482015261195960f21b6064820152608401610494565b600160068281548110611a7e57611a7e612551565b906000526020600020906007020160060160006101000a81548160ff021916908315150217905550600760068281548110611abb57611abb612551565b600091825260208083208454600181810187559585529190932060079283029093018054919092029092019182558281015492820180546001600160a01b0319166001600160a01b0390941693909317909255600280820190611b2090840182612830565b50600381810190611b3390840182612830565b5060048281015490820180546001600160a01b0319166001600160a01b03909216919091179055600580830154908201556006918201805492909101805460ff938416151560ff19821681178355925461010090819004909416151590930261ff001990921661ffff199093169290921717905550565b81513390611c095760405162461bcd60e51b815260206004820152602660248201527f596f75206d7573742070726f76696465206120646f6d61696e206f662065787060448201526565727469736560d01b6064820152608401610494565b6000825111611c5a5760405162461bcd60e51b815260206004820152601b60248201527f596f75206d7573742070726f76696465207265666572656e63657300000000006044820152606401610494565b6001600160a01b03811660009081526004602052604090206003015460ff1615611cc65760405162461bcd60e51b815260206004820152601d60248201527f596f752061726520616c7265616479206120636f6e7472696275746f720000006044820152606401610494565b6001600160a01b0381166000908152600460205260409020600101611ceb8482612732565b506001600160a01b0381166000908152600460205260409020600201611d118382612732565b506001600160a01b03811660008181526004602052604090819020600301805460ff19166001179055517f1a88464190f274aa53f870534c3127cd9487833d792330512d5e9c4d57c69abb90611d6a908690869061290b565b60405180910390a2505050565b611d7f6120c6565b60004711611dcf5760405162461bcd60e51b815260206004820152601f60248201527f436f6e747261637420686173206e6f2045544820746f207472616e73666572006044820152606401610494565b600080546040516001600160a01b03909116914780156108fc02929091818181858888f19350505050158015611e09573d6000803e3d6000fd5b50565b611e146120c6565b6001600160a01b038116611e795760405162461bcd60e51b815260206004820152602660248201527f4f776e61626c653a206e6577206f776e657220697320746865207a65726f206160448201526564647265737360d01b6064820152608401610494565b611e0981612120565b611e8a612170565b611e92612170565b611ea4670de0b6b3a76400004761281c565b81526040516370a0823160e01b81523060048201526001600160a01b037f000000000000000000000000000000000000000000000000000000000000000016906370a0823190602401602060405180830381865afa158015611f0a573d6000803e3d6000fd5b505050506040513d601f19601f82011682018060405250810190611f2e9190612606565b6020820152919050565b60405163a9059cbb60e01b81526001600160a01b038481166004830152602482018490527f0000000000000000000000000000000000000000000000000000000000000000169063a9059cbb906044016020604051808303816000875af1158015611fa7573d6000803e3d6000fd5b505050506040513d601f19601f82011682018060405250810190611fcb91906125a1565b5060408051828152602081018490526001600160a01b038516917f77f92a1b6a1a11de8ca49515ad4c1fad45632dd3442167d74b90b304a3c7a7589101611d6a565b3360009081526003602052604081206002015461202a9042612939565b336000908152600360208190526040822090810154905492935090916120509190612805565b3360009081526003602052604090206001015461206d91906127f2565b9050600f60646000816120808486612805565b61208a919061281c565b9050600061209c6301e143208361281c565b905060006120aa8288612805565b3360009081526003602052604090206004015550505050505050565b6000546001600160a01b031633146110d45760405162461bcd60e51b815260206004820181905260248201527f4f776e61626c653a2063616c6c6572206973206e6f7420746865206f776e65726044820152606401610494565b600080546001600160a01b038381166001600160a01b0319831681178455604051919092169283917f8be0079c531659141344cd1fd0a4f28419497f9722a3daafe3b4186f6b6457e09190a35050565b60405180604001604052806002906020820280368337509192915050565b6000602082840312156121a057600080fd5b5035919050565b6000815180845260005b818110156121cd576020818501810151868301820152016121b1565b506000602082860101526020601f19601f83011685010191505092915050565b60006020808301818452808551808352604092508286019150828160051b87010184880160005b838110156122c357888303603f19018552815180518452878101516001600160a01b0316888501528681015161010088860181905290612256828701826121a7565b9150506060808301518683038288015261227083826121a7565b9250505060808083015161228e828801826001600160a01b03169052565b505060a0828101519086015260c08083015115159086015260e091820151151591909401529386019390860190600101612214565b509098975050505050505050565b80356001600160a01b03811681146122e857600080fd5b919050565b6000602082840312156122ff57600080fd5b612308826122d1565b9392505050565b6020808252825182820181905260009190848201906040850190845b818110156123475783518352928401929184019160010161232b565b50909695505050505050565b6000806040838503121561236657600080fd5b61236f836122d1565b946020939093013593505050565b634e487b7160e01b600052604160045260246000fd5b600082601f8301126123a457600080fd5b813567ffffffffffffffff808211156123bf576123bf61237d565b604051601f8301601f19908116603f011681019082821181831017156123e7576123e761237d565b8160405283815286602085880101111561240057600080fd5b836020870160208301376000602085830101528094505050505092915050565b6000806000806060858703121561243657600080fd5b843567ffffffffffffffff8082111561244e57600080fd5b818701915087601f83011261246257600080fd5b81358181111561247157600080fd5b88602082850101111561248357600080fd5b60209283019650945090860135908082111561249e57600080fd5b506124ab87828801612393565b949793965093946040013593505050565b600080604083850312156124cf57600080fd5b823567ffffffffffffffff808211156124e757600080fd5b6124f386838701612393565b9350602085013591508082111561250957600080fd5b5061251685828601612393565b9150509250929050565b60408101818360005b6002811015612548578151835260209283019290910190600101612529565b50505092915050565b634e487b7160e01b600052603260045260246000fd5b600181811c9082168061257b57607f821691505b60208210810361259b57634e487b7160e01b600052602260045260246000fd5b50919050565b6000602082840312156125b357600080fd5b8151801515811461230857600080fd5b60208082526023908201527f596f7520646f6e2774206861766520616e79207265776172647320746f20636c60408201526261696d60e81b606082015260800190565b60006020828403121561261857600080fd5b5051919050565b805169ffffffffffffffffffff811681146122e857600080fd5b600080600080600060a0868803121561265157600080fd5b61265a8661261f565b945060208601519350604086015192506060860151915061267d6080870161261f565b90509295509295909350565b634e487b7160e01b600052601260045260246000fd5b634e487b7160e01b600052601160045260246000fd5b6000826126c4576126c4612689565b600160ff1b8214600019841416156126de576126de61269f565b500590565b601f82111561272d57600081815260208120601f850160051c8101602086101561270a5750805b601f850160051c820191505b8181101561272957828155600101612716565b5050505b505050565b815167ffffffffffffffff81111561274c5761274c61237d565b6127608161275a8454612567565b846126e3565b602080601f831160018114612795576000841561277d5750858301515b600019600386901b1c1916600185901b178555612729565b600085815260208120601f198616915b828110156127c4578886015182559484019460019091019084016127a5565b50858210156127e25787850151600019600388901b60f8161c191681555b5050505050600190811b01905550565b80820180821115610fba57610fba61269f565b8082028115828204841417610fba57610fba61269f565b60008261282b5761282b612689565b500490565b81810361283b575050565b6128458254612567565b67ffffffffffffffff81111561285d5761285d61237d565b61286b8161275a8454612567565b6000601f82116001811461289f57600083156128875750848201545b600019600385901b1c1916600184901b178455612904565b600085815260209020601f19841690600086815260209020845b838110156128d957828601548255600195860195909101906020016128b9565b50858310156128f75781850154600019600388901b60f8161c191681555b50505060018360011b0184555b5050505050565b60408152600061291e60408301856121a7565b828103602084015261293081856121a7565b95945050505050565b81810381811115610fba57610fba61269f56fea264697066735822122046dff10e0f54360e66374fd9c360b89630efea53bf32f72f104e0cc321a976cd64736f6c63430008120033",
  "linkReferences": {},
  "deployedLinkReferences": {}
}